{
  "abi": [
    {
      "inputs": [
        {
          "internalType": "address",
          "name": "_LendingPoolAddressesProviderAdddress",
          "type": "address"
        }
      ],
      "stateMutability": "nonpayable",
      "type": "constructor"
    },
    {
      "inputs": [],
      "name": "lendingPool",
      "outputs": [
        {
          "internalType": "contract ILendingPool",
          "name": "",
          "type": "address"
        }
      ],
      "stateMutability": "view",
      "type": "function"
    },
    {
      "inputs": [],
      "name": "lendingPoolAddressesProvider",
      "outputs": [
        {
          "internalType": "contract ILendingPoolAddressesProvider",
          "name": "",
          "type": "address"
        }
      ],
      "stateMutability": "view",
      "type": "function"
    }
  ],
  "bytecode": "608060405234801561001057600080fd5b5060405161019e38038061019e8339818101604052602081101561003357600080fd5b5051600080546001600160a01b0319166001600160a01b03808416919091179182905560408051630261bf8b60e01b815290519290911691630261bf8b91600480820192602092909190829003018186803b15801561009157600080fd5b505afa1580156100a5573d6000803e3d6000fd5b505050506040513d60208110156100bb57600080fd5b5051600180546001600160a01b0319166001600160a01b039092169190911790555060b3806100eb6000396000f3fe6080604052348015600f57600080fd5b506004361060325760003560e01c8063a59a9973146037578063bba00ba5146059575b600080fd5b603d605f565b604080516001600160a01b039092168252519081900360200190f35b603d606e565b6001546001600160a01b031681565b6000546001600160a01b03168156fea26469706673582212209c1dcdd0c6b8385ae881d492641a378e3c3993e1e9e87c169c150bcfae2e0c4464736f6c634300060c0033",
  "bytecodeSha1": "c606020e800254c7628994fb3616f7451ec9b197",
  "compiler": {
    "evm_version": "istanbul",
    "optimizer": {
      "enabled": true,
      "runs": 200
    },
    "version": "0.6.12+commit.27d51765"
  },
  "contractName": "BorrowFromAave",
  "language": "Solidity",
  "natspec": {
    "kind": "dev",
    "methods": {},
    "version": 1
  },
  "opcodes": "PUSH1 0x80 PUSH1 0x40 MSTORE CALLVALUE DUP1 ISZERO PUSH1 0xF JUMPI PUSH1 0x0 DUP1 REVERT JUMPDEST POP PUSH1 0x4 CALLDATASIZE LT PUSH1 0x32 JUMPI PUSH1 0x0 CALLDATALOAD PUSH1 0xE0 SHR DUP1 PUSH4 0xA59A9973 EQ PUSH1 0x37 JUMPI DUP1 PUSH4 0xBBA00BA5 EQ PUSH1 0x59 JUMPI JUMPDEST PUSH1 0x0 DUP1 REVERT JUMPDEST PUSH1 0x3D PUSH1 0x5F JUMP JUMPDEST PUSH1 0x40 DUP1 MLOAD PUSH1 0x1 PUSH1 0x1 PUSH1 0xA0 SHL SUB SWAP1 SWAP3 AND DUP3 MSTORE MLOAD SWAP1 DUP2 SWAP1 SUB PUSH1 0x20 ADD SWAP1 RETURN JUMPDEST PUSH1 0x3D PUSH1 0x6E JUMP JUMPDEST PUSH1 0x1 SLOAD PUSH1 0x1 PUSH1 0x1 PUSH1 0xA0 SHL SUB AND DUP2 JUMP JUMPDEST PUSH1 0x0 SLOAD PUSH1 0x1 PUSH1 0x1 PUSH1 0xA0 SHL SUB AND DUP2 JUMP INVALID LOG2 PUSH5 0x6970667358 0x22 SLT KECCAK256 SWAP13 SAR 0xCD 0xD0 0xC6 0xB8 CODESIZE GAS 0xE8 DUP2 0xD4 SWAP3 PUSH5 0x1A378E3C39 SWAP4 0xE1 0xE9 0xE8 PUSH29 0x169C150BCFAE2E0C4464736F6C634300060C0033000000000000000000 ",
  "sha1": "655190d2f0e7dfea0f99a812367f2f92f2c80a12",
  "source": "\n// SPDX-License-Identifier: MIT\npragma solidity ^0.6.6;\n\nimport \"@aave/contracts/interfaces/ILendingPool.sol\";\nimport \"@aave/contracts/interfaces/ILendingPoolAddressesProvider.sol\";\n\ncontract BorrowFromAave {\n    ILendingPoolAddressesProvider public lendingPoolAddressesProvider; \n    ILendingPool public lendingPool;\n\n    // Kovan\n    // DAI/ETH\n    // 0x22B58f1EbEDfCA50feF632bD73368b2FdA96D541\n    // 0x773616E4d11A78F511299002da57A0a94577F1f4\n\n    constructor(address _LendingPoolAddressesProviderAdddress) public {\n        lendingPoolAddressesProvider = ILendingPoolAddressesProvider(_LendingPoolAddressesProviderAdddress);\n        lendingPool = ILendingPool(lendingPoolAddressesProvider.getLendingPool());\n    }\n}\n",
  "sourcePath": "contracts/BorrowFromAave.sol",
  "type": "contract"
}